:020000040800F2
:10000000C0F00420ED01000851480008FB3D000845
:1000100099450008C9030008356100080000000088
:1000200000000000000000000000000079570008F8
:100030009F070008000000000D4B0008D959000878
:10004000070200080702000807020008070200086C
:10005000070200080702000807020008070200085C
:10006000070200080702000807020008070200084C
:10007000070200080702000807020008070200083C
:1000800095060008A10600080702000807020008FC
:10009000070200080702000807020008030800081A
:1000A000070200080702000807020008070200080C
:1000B000D15A0008DD5A00080702000807020008AC
:1000C00007020008070200080702000807020008EC
:1000D000070200081D6100082961000807020008E6
:1000E000ED070008070200080702000807020008E1
:1000F00007020008070200080702000807020008BC
:1001000007020008AD4B00080702000807020008BC
:10011000070200080702000807020008070200089B
:100120000702000807020008AD060008B90600082B
:10013000070200080702000807020008070200087B
:10014000070200080702000807020008070200086B
:1001500007020008C5060008D106000807020008CB
:10016000070200080702000807020008070200084B
:10017000070200080702000800000000000000005D
:10018000070200080702000807020008070200082B
:10019000070200080702000800000000070200082C
:1001A000070200080702000800000000000000002D
:1001B000070200080000000000000000070200081D
:1001C00007020008070200080702000807020008EB
:1001D0000702000807020008DFF80CD000F08CF8D6
:1001E000004800473D920008C0F0042006488047C0
:1001F00006480047FEE7FEE7FEE7FEE7FEE7FEE70C
:10020000FEE7FEE7FEE7FEE77D5A0008D901000899
:100210002DE9F05F0546002092469B46884606463B
:10022000814640241BE0284641464746224600F0CE
:1002300053F853465A46C01A914110D311461846F6
:10024000224600F03AF82D1A67EB01084F46224685
:100250000120002100F031F817EB00094E41201E6B
:10026000A4F10104DFDC484631462A464346BDE896
:10027000F09F40EA01039B0703D009E008C9121F61
:1002800008C0042AFAD203E011F8013B00F8013B50
:10029000521EF9D27047D2B201E000F8012B491E7C
:1002A000FBD270470022F6E710B513460A46044613
:1002B0001946FFF7F0FF204610BD202A04DB203A44
:1002C00000FA02F1002070479140C2F1200320FAA9
:1002D00003F3194390407047202A04DB203A21FAA7
:1002E00002F00021704721FA02F3D040C2F120024F
:1002F0009140084319467047064C074D06E0E068F8
:1003000040F0010394E8070098471034AC42F6D35C
:10031000FFF766FFA0480308C048030870470000C5
:100320000146014802F068BDD8DC042010B504483D
:1003300002F074FD042801D0012010BD002010BD82
:10034000D8DC042038B501208DF800009DF80000AD
:10035000012801D0012038BD064802F04BFE040000
:1003600006D14FF40061034802F0C3FB00B1012441
:10037000204638BDD8DC0420134610B50A46014695
:100380000024034802F01CFF00B10124204610BDE8
:10039000D8DC0420014901208860704778000020E3
:1003A000134610B50A4601460024034802F08AFFAE
:1003B00000B10124204610BDD8DC042001490120F1
:1003C0004860704778000020FEE700007CB56A4670
:1003D00001A912A006F08DFF114E3070E0B900980F
:1003E00000242346C1694089891E41434A08019976
:1003F000484345080BA005F09FFE23462A460EA061
:1004000005F09AFE1148281A74F1000003D2012069
:10041000B07600207CBDB47601207CBD303A00006F
:1004200000000020544F545F53495A453A20256C30
:100430006C750D0A000000004652455F53495A454D
:100440003A20256C6C750D0A00000000A0860100A2
:100450002DE9F04F524CC7B0002594F806B094F83F
:100460000780277AA67A94F80BA094F80C9000964F
:10047000CDE901A93B46424659464AA005F05CFE3B
:1004800000201D901E901F90142139A8FFF70AFF2D
:1004900014213FA8FFF706FF627B4FA11DA805F0BE
:1004A0005BFE1DA906A807F0BBFF20701DA930B197
:1004B0004AA005F041FE1DA806F0A6FF02E04CA0F0
:1004C00005F03AFE06A806F003FFCDE900875B467B
:1004D0001DAA4CA139A805F03FFE39A906A807F0CE
:1004E0009FFF207039A930B13CA005F025FE39A846
:1004F00006F08AFF02E03EA005F01EFE06A806F008
:10050000E7FE334639AA44A13FA805F025FE3FA9DE
:1005100006A807F085FF20703FA930B12FA005F095
:100520000BFE3FA806F070FF02E031A005F004FECC
:1005300006A806F0CDFECDE900B8CDE90276CDE9FA
:1005400004A9637B3FAA36A120A805F005FE12226C
:1005500020A93F4807F0C8FD6D1C20700A2D08DD5A
:1005600020A93CA005F0E8FD207809F065F801F02D
:1005700039FD207828B1012001F0ECF8207800281E
:10058000E5D1608D20A9401C82B2628538A005F0BB
:10059000D3FD0120A07047B00020BDE8F08F00001F
:1005A000000000204372656174654E657746696C92
:1005B000652829203230253032642F253032642FCF
:1005C0002530326420253032643A253032643A25B1
:1005D0003032640D0A00000025640000637265611A
:1005E000746520666F6C6465722025730D0A0000C7
:1005F000666F6C6465722025732065786973742159
:100600000D0A000025732F32302530326425303238
:10061000642530326400000025732F2530326400D9
:1006200025732F7261772D646174612D25642D32DD
:1006300030253032642D25303264253032642D254A
:1006400030326425303264253032642E64617400A7
:10065000000300206372656174652066696C652023
:100660002573206661696C203E20350D0A0000006C
:100670006372656174652066696C65202573206FFF
:100680006B2C20675F66696C655F636E743A2564E6
:100690000D0A0000014800F0E7BE0000D4DF04208E
:1006A000014800F0E1BE000034E00420014800F001
:1006B000DBBE000014DF0420014800F0D5BE0000BE
:1006C0005CDD0420014800F0CFBE0000BCDD04204A
:1006D000014800F0C9BE000074DF0420016818233F
:1006E000CAB2103AB2FBF3F2054B6FF30901032AC9
:1006F0009B5CC36500D9091D8165084670470000F1
:10070000A09C000810B5014600208B698A6A4FF052
:10071000C07453B1B3F5005F15D072B1012A0CD08B
:10072000022A0AD0032A09D104E01AB1012A06D00C
:10073000022A03D1C96AC90100D5012010BDC96AC6
:10074000A142FAD010BD002AF7D0012AF2D0022A25
:10075000F3D0032AF3D010BD10B50468636083683A
:10076000402B036803D099600068C26010BD9A6096
:100770000068C16010BD30B50468256825F4802587
:100780002560046863608368402B036803D0996028
:100790000068C26030BD9A600068C16030BD7047BB
:1007A0000EB50648817A037BC27A8DE80E00037A83
:1007B000C279817902A005F0BFFC0EBD00000020C7
:1007C0005254432054494D453A203230253032644A
:1007D0002F253032642F2530326420253032643AA0
:1007E000253032643A253032640D0A0010B54FF4DA
:1007F000805001F01BF8BDE810404FF4004001F0BC
:1008000015B8802001F012B870470022AFF30080C5
:1008100030B50E4B054601205C7A002C14D1587A75
:100820001C54587A03EB800045605D7A03F10800A0
:100830002A54587A421C5A72303008703A20487054
:100840002F208870CC70002030BD0000B4E0042060
:10085000FEB500254FF47A76394C08270EE06D1C62
:10086000294638A005F068FC042D04DDBDE8FE40F3
:100870003BA005F061BC304600F06CFFCDE90047BD
:1008800001230022D1214048029601F041F90028BD
:10089000E5D13E48A1790122C17061794170217989
:1008A0008170E17801703A48A178017061784170F7
:1008B000217881703549374802F020F80122344907
:1008C000344802F07FF8A07900F00F01000900EB36
:1008D000800001EB40012D4868388171617901F099
:1008E0000F02090901EB810102EB4101C17121797C
:1008F00001F00F02090901EB810102EB41010172D4
:10090000E17801F007014172A17801F00F020909B5
:1009100001EB810102EB41018172617801F00F026C
:10092000090901EB810102EB4101C172217801F05B
:100930000F02090901EB810102EB41010173FEBDC8
:10094000A8000020726561642052544320657272D1
:100950006F722C2072657472792025640D0A000074
:100960007265616420525443207265747279203E2E
:1009700020342C207573652064656661756C742065
:1009800074696D650D0A000064DC042068000020B5
:1009900090050020B8DC0420FEB500252EA005F04F
:1009A000CBFB314C4FF47A760827CDE90047012381
:1009B0000022D1212D48029601F0AAF860B16D1CE9
:1009C000EDB229462AA005F0B7FB052DEDD9BDE80B
:1009D000FE402DA005F0B0BB32A005F0ADFBA07924
:1009E00000F00F01000900EB800001EB40013448EA
:1009F0008171617901F00F02090901EB810102EBBC
:100A00004101C171217901F00F02090901EB810156
:100A100002EB41010172E17801F007014172A17816
:100A200001F00F02090901EB810102EB4101817222
:100A3000617801F00F02090901EB810102EB41012C
:100A4000C172217801F00F02090901EB810102EB6B
:100A500041010173FEBD000047657452746354691F
:100A60006D653228290D0A00A800002064DC0420EE
:100A700072656164205254432074696D652066611B
:100A8000696C2025640D0A00525443206661696C2C
:100A900020352C2073657420646674203230303029
:100AA0000D0A000072656164205254432074696D20
:100AB000652073756363657373210D0A0000000080
:100AC000000000202DE9F84F044600200A9D009008
:100AD000A0684FF4807A802817D0E06BB8B1606CC2
:100AE000A8B1E06C98B194F83400012813D001202B
:100AF00084F8340094F835600020012E0DD084F87D
:100B0000340002200090BDE8F88F504600E04020FD
:100B100060650120F7E70220F5E7022684F83560DA
:100B200060652068066846F48026066020680361D8
:100B30002B462046FFF710FEDFF800844FF4006BD1
:100B40004FF4001EFE48FD4AFD4BFC4DFC4EFB4F92
:100B5000DFF8ECC3DFF8E4932168483A60331835D6
:100B60001836303F0CF1780C09F13009414534D981
:100B7000814205D0914203D0994201D0A94201D1CE
:100B8000202125E0B14205D0B94203D0614501D012
:100B9000494501D159461BE0DFF8A48308F130082C
:100BA000414511D0DFF89483A8F1180841450BD0D6
:100BB000DFF88C8308F19008414505D0DFF87C838D
:100BC00008F14808414501D1714601E04FF000614C
:100BD000DFF86883A8F14C0839E0DFF8648308F196
:100BE000A808414536D9814205D0914203D09942A7
:100BF00001D0A94201D1202125E0B14205D0B9425E
:100C000003D0614501D0494501D159461BE0DFF8C9
:100C1000308308F13008414511D0DFF82083A8F176
:100C2000180841450BD0DFF8188308F190084145BA
:100C300005D0DFF8088308F14808414501D1714625
:100C400001E04FF00061DFF8F482A8F15008C8F825
:100C5000001072E0DFF8E88208F14808414536D913
:100C6000814205D0914203D0994201D0A94201D1DD
:100C7000202125E0B14205D0B94203D0614501D021
:100C8000494501D159461BE0DFF8B48208F130082C
:100C9000414511D0DFF8A482A8F1180841450BD0D6
:100CA000DFF89C8208F19008414505D0DFF88C827E
:100CB00008F14808414501D1714601E04FF000615B
:100CC000DFF87C82A8F11008C8F80C1035E08142EA
:100CD00005D0914203D0994201D0A94201D12021EF
:100CE00025E0B14205D0B94203D0614501D0494564
:100CF00001D159461BE0DFF8488208F13008414530
:100D000011D0DFF83882A8F1180841450BD0DFF880
:100D1000308208F19008414505D0DFF8208208F1C3
:100D20004808414501D1714601E04FF00061DFF80C
:100D30001082A8F11008C8F80810DFF800822168B6
:100D40004FF4806B4FF4801E414534D9814205D069
:100D5000914203D0994201D0A94201D1102125E04E
:100D6000B14205D0B94203D0614501D0494501D116
:100D700059461BE0DFF8C88108F13008414511D021
:100D8000DFF8B881A8F1180841450BD0DFF8B08131
:100D900008F19008414505D0DFF8A08108F1480826
:100DA000414501D1714601E04FF08061DFF88C814F
:100DB000A8F14C0839E0DFF8888108F1A80841451E
:100DC00036D9814205D0914203D0994201D0A9423F
:100DD00001D1102125E0B14205D0B94203D06145CF
:100DE00001D0494501D159461BE0DFF8548108F193
:100DF0003008414511D0DFF84481A8F11808414579
:100E00000BD0DFF83C8108F19008414505D0DFF8B0
:100E10002C8108F14808414501D1714601E04FF0AD
:100E20008061DFF81881A8F15008C8F8001072E05E
:100E3000DFF80C8108F14808414536D9814205D0D8
:100E4000914203D0994201D0A94201D1102125E05D
:100E5000B14205D0B94203D0614501D0494501D125
:100E600059461BE0DFF8D88008F13008414511D021
:100E7000DFF8C880A8F1180841450BD0DFF8C08022
:100E800008F19008414505D0DFF8B08008F1480826
:100E9000414501D1714601E04FF08061DFF8A0804B
:100EA000A8F11008C8F80C1035E0814205D0914235
:100EB00003D0994201D0A94201D1102125E0B142CD
:100EC00005D0B94203D0614501D0494501D1594609
:100ED0001BE0DFF86C8008F13008414511D0DFF8E5
:100EE0005C80A8F1180841450BD0DFF8548008F168
:100EF0009008414505D0DFF8448008F14808414595
:100F000001D1714601E04FF08061DFF83480A8F133
:100F10001008C8F80810DFF8248021684FF4007B1F
:100F20004FF4002E414534D9814205D0914203D07F
:100F3000994201D0A94205D1082125E05864024018
:100F400010600240B14205D0B94203D0614501D0E2
:100F5000494501D1594617E0DFF8E08441450FD0FB
:100F6000DFF8DC8441450BD0DFF8D08408F160085D
:100F7000414505D0DFF8C88408F16008414501D13A
:100F8000714601E04FF00071DFF8B484A8F1340835
:100F900035E0DFF8A88408F17808414532D981426C
:100FA00005D0914203D0994201D0A94201D1082134
:100FB00021E0B14205D0B94203D0614501D0494595
:100FC00001D1594617E0DFF8748441450FD0DFF8AE
:100FD000708441450BD0DFF8648408F16008414516
:100FE00005D0DFF85C8408F16008414501D1714605
:100FF00001E04FF00071DFF84884A8F13808C8F824
:1010000000106AE0DFF8348408F11808414532D94D
:10101000814205D0914203D0994201D0A94201D129
:10102000082121E0B14205D0B94203D0614501D089
:10103000494501D1594617E0DFF8008441450FD0FA
:10104000DFF8FC8341450BD0DFF8F08308F160083E
:10105000414505D0DFF8E88308F16008414501D13A
:10106000714601E04FF00071DFF8D083A8F140082D
:10107000C8F80C1031E0814205D0914203D099426A
:1010800001D0A94201D1082121E0B14205D0B942E5
:1010900003D0614501D0494501D1594617E0DFF839
:1010A0009C8341450FD0DFF8988341450BD0DFF892
:1010B0008C8308F16008414505D0DFF8848308F18E
:1010C0006008414501D1714601E04FF00071DFF841
:1010D0006C83A8F14008C8F80810DFF86483216821
:1010E00008F118084FF4802B4FF0807E41452FD92E
:1010F000814205D0914203D0994201D0A94201D149
:10110000042120E0B14205D0B94203D0614501D0AD
:10111000494501D1514616E0DFF8208341450FD003
:10112000DFF81C8341450BD0DFF8108308F160081D
:10113000414505D0DFF8088308F16008414501D139
:10114000594600E07146DFF8F882A8F1340834E02F
:10115000DFF8E88208F17808414531D9814205D0AD
:10116000914203D0994201D0A94201D1042120E04B
:10117000B14205D0B94203D0614501D0494501D102
:10118000514616E0DFF8B48241450FD0DFF8B08257
:1011900041450BD0DFF8A48208F16008414505D035
:1011A000DFF89C8208F16008414501D1594600E012
:1011B0007146DFF88C82A8F13808C8F8001068E0A2
:1011C000DFF8788208F11808414531D9814205D00D
:1011D000914203D0994201D0A94201D1042120E0DB
:1011E000B14205D0B94203D0614501D0494501D192
:1011F000514616E0DFF8448241450FD0DFF84082C7
:1012000041450BD0DFF8348208F16008414505D034
:10121000DFF82C8208F16008414501D1594600E011
:101220007146DFF81882A8F14008C8F80C1030E0C9
:10123000814205D0914203D0994201D0A94201D107
:10124000042120E0B14205D0B94203D0614501D06C
:10125000494501D1514616E0DFF8E08141450FD004
:10126000DFF8DC8141450BD0DFF8D08108F1600860
:10127000414505D0DFF8C88108F16008414501D13A
:10128000594600E07146DFF8B481A8F14008C8F87B
:101290000810DFF8AC81216808F118084FF4803A93
:1012A0004FF4800B414527D9814205D0914203D0AC
:1012B000994201D0A94201D101201AE0B14205D0E2
:1012C000B94203D0614501D0494501D1402010E029
:1012D0005A4881420AD05A48814207D05748603064
:1012E000814203D056486030814201D1504600E02F
:1012F0005846534934392CE0DFF8408108F178082A
:10130000414528D9814205D0914203D0994201D06C
:10131000A94201D101201AE0B14205D0B94203D05F
:10132000614501D0494501D1402010E04348814248
:101330000AD04348814207D040486030814203D000
:101340003F486030814201D1504600E058463C4958
:101350003839086056E0DFF8E48008F118084145A4
:1013600028D9814205D0914203D0994201D0A942A7
:1013700001D101201AE0B14205D0B94203D0614544
:1013800001D0494501D1402010E02C4881420AD0CB
:101390002B48814207D029486030814203D0284839
:1013A0006030814201D1504600E05846234940391F
:1013B000C86027E0814205D0914203D0994201D014
:1013C000A94201D101201AE0B14205D0B94203D0AF
:1013D000614501D0494501D1402010E017488142C4
:1013E0000AD01748814207D014486030814203D0A8
:1013F00013486030814201D1504600E058460F4901
:10140000403988602068016841F016010160206859
:10141000416941F080014161206C08B9A06C20B1A4
:101420002068016841F0080101602068016841F00E
:10143000010101600098BDE8F88F000040600240A3
:101440004064024090F83510022903D080214165A4
:1014500001207047052180F835100068016821F0EF
:1014600001010160002070472DE9F84304464FF068
:101470000009CDF8009063484FF41651A56D00683F
:10148000B0FBF1F72E6894F85C10082000FA01F127
:1014900031420FD021680A6852070BD50A6822F042
:1014A00004020A6094F85C108840A860606D40F007
:1014B0000100606594F85C104FF0010808FA01F033
:1014C000304208D021684969090604D5A860606DDA
:1014D00040F00200606594F85C10042088403042BF
:1014E00008D021680968890704D5A860606D40F0BC
:1014F0000400606594F85C1010208840304218D0D9
:1015000021680968090714D5A860206801684903A3
:1015100004D50068000308D5A16C07E00168C9057F
:1015200003D4016821F008010160216C09B1204653
:10153000884794F85C1020208840304231D02168E0
:101540000968C9062DD5A86094F8350005282068DB
:10155000016806D0490347D5006800031DD4616CBB
:101560001CE021F0160101602068416921F0800132
:101570004161206C08B9A06C20B12068016821F09D
:101580000801016094F85C103F208840A86084F84E
:10159000349084F83580216D1FE0E16B09B120465D
:1015A0008847606D00282BD0606DC00714D00520DF
:1015B00084F835002068016821F00101016000987D
:1015C000401C0090B84203D820680068C007F6D1DC
:1015D00084F8349084F83580E16C002910D001B093
:1015E0002046BDE8F04308470168C905D5D4016825
:1015F00021F01001016084F8349084F83580CCE744
:10160000BDE8F883980000202DE9F041044600F081
:10161000F5F906465CB1002584F83450022084F8C0
:1016200035002068016821F0010101600DE0012012
:10163000BDE8F08100F0E2F9801B052805D92020E3
:101640006065032084F83500F2E720680068C00771
:10165000F0D12268116820480140D4E90103184301
:10166000D4E903363343184363691843A369184325
:10167000E3691843236A18430843616A042903D1C4
:10168000D4E90B1319430843106020684069666A67
:1016900020F0070130460E43012704280CD1A06A30
:1016A0000643E06A40B12046FFF72CF820B1402005
:1016B000606584F83570BAE7206846612046FFF718
:1016C0000DF894F85C203F2191408160656584F8B5
:1016D00035700020ACE700003F8010E02DE9F041BC
:1016E0000446866D90F83400002501280DD00120B5
:1016F00084F8340094F835700020012F07D084F866
:10170000340002252846BDE8F0810220FBE70227CD
:1017100084F8357060652046FFF72DF894F85C106A
:101720003F208840B0602068016841F016010160E8
:101730002068416941F080014161206C20B120683E
:10174000016841F0080101602068016841F0010171
:101750000160D7E770B5044600F050F90546601CFB
:1017600002D004480078044400F048F9401BA0422D
:10177000FAD370BD8C00002010B5124CB0F5004FAC
:10178000617C0FD0B0F5805F19D1C1F1010010F07C
:10179000FF01617414D00CA004F0CEFCBDE8104031
:1017A00000F020BC01290AD10020607411A004F0CF
:1017B000C3FC0221084602F0F1FC0120E07410BDD8
:1017C00012A0E9E7000000205344436172642069DD
:1017D0006E736572742C207364636172643D25645A
:1017E0002C2073797374656D207265626F6F740D50
:1017F0000A0000005041313520627574746F6E2C00
:1018000020D0B6D4D85344BFA80D0A005344436136
:10181000726420706C75672D6F75742C207364630F
:101820006172643D25640D0A00000000044910B592
:101830000A68024202D00860FFF79EFF10BD000058
:10184000143C01402DE9F84FDFF874B100224FF04D
:1018500001084FF0030A4FF00F090BF1040E00BF0F
:101860000B6808FA02F42340A3426ED14D68022DA2
:1018700001D0122D0ED1D50800EB850CDCF82050DC
:101880005607F70E09FA07F6B5430E69BE402E4318
:10189000CCF82060066855000F790AFA05FC07F0BD
:1018A000030726EA0C06AF40374307604E68012E57
:1018B00005D0022E03D0112E01D0122E0ED1866833
:1018C000CF6826EA0C06AF40374387604668A643D8
:1018D0000C79C4F30014944034434460C4688E68A7
:1018E00024EA0C04AE402643C6604C68E40060D590
:1018F000344C256845F480452560246822F00305B2
:1019000004F480440094304C2E19D6F8084895070A
:101910002F0F09FA07F5AC432C4DA84201D1002541
:101920001FE02B4DA84201D101251AE0294DA84204
:1019300001D1022515E0284DA84201D1032510E070
:10194000264DA84202D104250BE032E0244DA842E6
:1019500001D1052505E0234DA84201D1062500E06F
:101960000725BD402543C6F80858DBF800405D4612
:101970004E689C43F60300D51C432C60DEF8004003
:1019800075464E689C43B60300D51C432C600C4D35
:1019900008352C684E689C43F60200D51C432C6029
:1019A000074D0C352C684E689C43B60200D51C438D
:1019B0002C60521C102AFFF453AFBDE8F88F0000D2
:1019C000003C014044380240003001400000024029
:1019D0000004024000080240000C024000100240D7
:1019E000001402400018024042694A4042617047B8
:1019F0000AB1816170470904FBE700000148806873
:101A0000704700008C00002070B5040004D094F8EA
:101A10003D00002510B106E0012070BD84F83C5067
:101A2000204600F011FA242084F83D002068016867
:101A300021F00101016000F01BFD33492268B0FB79
:101A4000F1F15160314A6368934206D94FF49673BD
:101A500059434FF47A73B1FBF3F12368491C1962BF
:101A6000616891420BD84900B0FBF1F2C2F30B025E
:101A7000042A01D2042019E0B0FBF1F016E0A368BB
:101A80009BB301EBC10202EB0112B0FBF2F242F494
:101A90008042120530D04BB301EBC10202EB0111C1
:101AA000B0FBF1F040F4804040F400402168C86190
:101AB000D4E90701084321680860D4E9031008430A
:101AC00021688860D4E9050108432168C86020685E
:101AD000016841F0010101602564202084F83D0087
:101AE000256384F83E50002070BD00E006E001EB65
:101AF0004102B0FBF2F2CCE70120D7E701EB410154
:101B0000B0FBF1F0D0E7000040420F00A0860100DA
:101B10002DE9FF4F83B09A46DDE9118793460446CD
:101B2000DDF84090FFF76AFF054694F83D00202855
:101B300074D11923012272492046009502F061FAFE
:101B40000028F5D194F83C00012867D0012084F8E2
:101B50003C0020680168C90703D1016841F0010118
:101B600001602068016821F400610160222084F88E
:101B70003D00402084F83E0000262664C4F82490EE
:101B8000A4F82A805F48E062608D2085CDE9007569
:101B900053465A462046049902F044F928B1206C75
:101BA00084F83C60042843D076E0208DC8B1012839
:101BB00020D00228206823D0416980690090208DC0
:101BC00003286BD801282AD04F4902283B464FF002
:101BD000000200955BD08846204602F012FAE8BB6E
:101BE00040E02068416981690091016841F4007119
:101BF000016076E02068016821F480610160F0E70F
:101C0000016821F4806101602068016841F400618D
:101C10000160206841698069009062E06EE02A46B8
:101C20003946204602F062FA30B1206C202833D0C9
:101C3000012007B0BDE8F08F206847E02068016808
:101C400041F40071016020680169606A421C6262AF
:101C50000170208D401E2085608D00E01CE0401E3C
:101C60006085E9E72068016821F4806101602068EF
:101C70000169606A421C62620170208D401E2085ED
:101C8000608D401E60853B460022414600952046FF
:101C900002F0B7F90028D1D00320CAE72A46394616
:101CA000204602F023FA0028BFD120680169606A4B
:101CB000421C62620170208D401E2085608D401E96
:101CC000608520684169C94349070AD40169606A8F
:101CD000421C62620170208D401E2085608D401E76
:101CE0006085208D00287FF46AAF202084F83D00B5
:101CF00084F83E6084F83C6000209AE7022098E770
:101D0000020010000000FFFF040001002DE9FF4F5A
:101D100083B09A46DDE9118793460446DDF840908A
:101D2000FFF76CFE064694F83D0020287DD119236C
:101D3000012243492046009602F063F900287CD135
:101D400094F83C00012878D0012084F83C002068F9
:101D50000168C90703D1016841F0010101602068F1
:101D6000016821F400610160212084F83D004020D9
:101D700084F83E0000252564C4F82490A4F82A8045
:101D80003048E062608D2085CDE9007653465A46A2
:101D90002046049902F0BEF880B3206C84F83C50D1
:101DA000042848D008E032463946204602F0CFF9F0
:101DB00030B1206C042839D0032007B0BDE8F08F83
:101DC000606A411C6162216800780861208D401EB4
:101DD00080B22085618D491E618521684A69D243A0
:101DE00052070BD468B1606A421C626200780861D5
:101DF000208D401E2085608D401E6085208D00282E
:101E0000D1D132463946204602F0D4F80028D0D14C
:101E100054F83D0B016841F400710160202004F882
:101E20001E09E57765770020C7E706E020680168AE
:101E300041F4007101600120BFE70220BDE700000E
:101E4000020010000000FFFF10B586B00446142108
:101E50006846FEF727FA14492068884221D11348C2
:101E6000016841F0020101600068694600F002006B
:101E700005904FF4407000901220019001200290D4
:101E800003200390042004900948FFF7DBFC074877
:101E90001030016841F400110160006800F4001086
:101EA000059006B010BD00000054004030380240DC
:101EB0000004024002488168027811448160704742
:101EC0008C0000200B4810B5016841F400710160DE
:101ED000016841F480610160016841F48071016032
:101EE000032000F06DF8002000F006F800F024F860
:101EF000002010BD003C024070B50D4D04464FF46B
:101F00007A712878B1FBF0F00A490968B1FBF0F06A
:101F100001F052FA48B9102C07D200222146501E77
:101F200000F02EF800206C6070BD012070BD000034
:101F30008C000020980000200A4808B5016841F490
:101F400080410160006800F4804000900548001F57
:101F5000016841F080510160006800F080500090FD
:101F600008BD00004438024000F01F0201219140EA
:101F70004009800000F1E020C0F800117047000027
:101F8000F0B40E4B1B680C46C3F30223C3F10705E4
:101F9000042D00D90425191D072901D2002300E0D2
:101FA000DB1E012606FA05F1491E214099409E409C
:101FB000761E16403143F0BC02F04BBC0CED00E045
:101FC000064900F0070208684FF6FF03184040EA90
:101FD0000220034A10430860704700000CED00E047
:101FE0000000FA05BFF34F8F05480168054A01F468
:101FF000E06111430160BFF34F8F00BFFDE70000B8
:102000000CED00E00400FA052DE9F84F04460078D5
:102010000027C34DC00708D02868E16920F0C060E0
:1020200008432860E06900B901272078800708D5B7
:102030002868216A20F0C05008432860206A00B94F
:102040000127208881046FF0FF0015D52968A26C54
:1020500021F4401111432960A16C19B1B1F5001FA1
:1020600002D009E0012707E02968626921F4F851EC
:1020700000EB0222114329602188490415D5296803
:10208000E26C21F4400111432960E16C19B1B1F512
:10209000000F02D009E0012707E02968626921F4F6
:1020A000F85100EB02200143296020784FF000092D
:1020B000000755D59A484C38016841F080510160BD
:1020C0000068DFF8608200F080500090D8F80010BF
:1020D00041F48071C8F80010FFF790FC064604E058
:1020E000FFF78CFC801B02286FD8D8F80000C005D1
:1020F000F6D58B4E1C3E306810F440701FD0A18C7A
:1021000001F4407181421AD03068012220F44071FC
:1021100085480260C0F8009031603068C0070ED07A
:10212000FFF76CFC804641F2883A05E0FFF766FC59
:10213000A0EB0801514548D830688007F6D5616AA0
:102140007748C1F301228438032A36D0016821F48C
:10215000F81101603068A18CC1F30B0108433060B5
:102160002078DFF8C8A1400703D594F85410CAF8C6
:10217000E01120786E4EC00605D53068E16A20F483
:1021800040000843306020784FF00068800609D591
:102190003068216B20F0006008433060206B4045C0
:1021A00000D101272078400605D53068A16A20F0CB
:1021B00080500843306067B908E002685D4B22F444
:1021C000F81219400A430260C4E773E020688028CF
:1021D00077D1DFF864B1CBF86890FFF70FFC504F70
:1021E00081468C3F06E000BFFFF708FCA0EB09002A
:1021F00002285FD838680001F6D4216DCAF8D810DB
:1022000020684E49C20701D0E2697AB1820701D540
:10221000226A5AB1820602D5226B424506D0400698
:102220000FD5A06A68B9206B40450AD1D4E90102F4
:1022300040EA8210227B237C120642EA037210439A
:1022400008602068820401D5A26C1AB1400415D53B
:10225000E06C98B90868D4E9012342EA8312C0F31C
:102260000360237C000640EA037002430A6028688A
:10227000A26920F01F00521E10432860207800063B
:102280000AD5D4E9010240EA8210227B237C12069F
:1022900042EA0372104308600120CBF86800FFF7A0
:1022A000ADFB80460AE000BFFFF7A8FBA0EB0800EB
:1022B000022803D90320BDE8F88F02E03868000146
:1022C000F2D52088C00505D52868616B20F0004054
:1022D000084328602088800505D52868A16B20F474
:1022E0000040084328602088400505D52868E16B38
:1022F00020F00040084328602088000505D52868A4
:10230000216C20F48040084328602088C00405D553
:102310003068616C20F04040084330600020CAE71C
:102320008C38024000700040400E47420010474287
:1023300094380240FFFCFF0F0000474284380240FF
:102340002DE9F0470E46050065D0DFF81481D8F876
:102350000000F7B200F00F00B04207D288F800701A
:10236000D8F8000000F00F00B04254D128683D4C6E
:10237000810712D5400703D5206840F4E050206063
:102380002878000703D5206840F46040206020686A
:10239000A96820F0F000084320602878C0072DD0FD
:1023A000304968680839012812D0022813D0032860
:1023B00011D00968890700292DDA216821F003016D
:1023C00001432160FFF71AFB814641F2883A0EE093
:1023D00009688903EFE709688901ECE7FFF70EFB5D
:1023E000A0EB0901514502D90320BDE8F087206820
:1023F000696800F00C00B0EB810FEFD1D8F8001045
:10240000404601F00F01B14207D90770006800F0A3
:102410000F00B04201D00120E7E72878400705D53A
:102420002068E96820F4E05008432060287800071D
:1024300006D52068296920F4604040EAC100206088
:1024400000F036F82168084AC1F30311515CC84016
:10245000064908600020FFF74FFD0020C5E7000097
:10246000003C024008380240A89C00089800002068
:102470000448054900680968044AC1F38221515C97
:10248000C84070479800002008380240B89C0008F7
:102490000448054900680968044AC1F34231515CA7
:1024A000C84070479800002008380240B89C0008D7
:1024B000154810B5006810F00C02144813D01449E8
:1024C000042A0FD0082A0ED10F4C241F226823683B
:1024D00002F03F025B0207D52068C0F38810A0FB22
:1024E000010106E0084610BD2168C1F38811A1FB77
:1024F00000010023FDF78CFE2168C1F30141491C56
:102500004900B0FBF1F010BD083802400024F4008F
:1025100040787D012DE9F84F05460078DFF800B3DB
:10252000C04CC0074AD0DBF800105846C1F3810107
:10253000012908D00068C0F3810002280AD1201DBB
:102540000068400206D52068800337D568680028F7
:1025500072D033E06868B0F5803F10D0B0F5A02F9E
:10256000206810D020F480302060206820F4802083
:1025700020606868A8B1FFF741FA06460DE02068C0
:1025800040F48030F4E740F480202060F7E700BF9B
:10259000FFF734FA801B64286FD820688003F7D5D2
:1025A0000CE0FFF72BFA064605E000BFFFF726FA1E
:1025B000801B6428F0D820688003F7D42878DFF8DF
:1025C000688280074FF0000940D5DBF800105846BC
:1025D00011F00C0F09D00068C0F3810002280BD164
:1025E0008F48001F0068400206D42068800715D578
:1025F000E868012820D111E0E868B8B10120C8F8E6
:102600000000FFF7FBF9064605E000BFFFF7F6F90B
:10261000801B0228C0D820688007F7D52068296968
:1026200020F0F80040EAC10020600FE0C8F80090F8
:10263000FFF7E4F9064606E0EFE000BFFFF7DEF93A
:10264000801B022819D820688007F7D42878000753
:1026500022D5734E754869696C3679B101210160E4
:10266000FFF7CCF9074604E0FFF7C8F9C01B0228C2
:1026700003D830688007F7D50EE089E0C0F80090F5
:10268000FFF7BCF9074604E0FFF7B8F9C01B0228C2
:102690007ED830688007F7D42878400768D5DFF8FF
:1026A00080A100270AF1380ADAF80000C0000BD434
:1026B000DAF8001041F08051CAF80010DAF8000092
:1026C000012700F080500090594E3068C00510D4AA
:1026D000306840F480703060FFF790F9009005E0BA
:1026E000FFF78CF90099401A022851D83068C005CC
:1026F000F6D54B4EA868683601280FD005283068FB
:1027000010D020F001003060306820F0040030600C
:10271000A868B8B1FFF772F900900FE0306840F098
:102720000100F4E740F004003060F7E7FFF766F9D6
:102730000099411A41F28830814266D8306880079A
:10274000F4D50EE0FFF75AF9009007E0FFF756F9CD
:102750000099411A41F28830814256D8306880078A
:10276000F4D42FB1DAF8001021F08051CAF800102B
:10277000A869D0B3DBF80010C1F3810102294CD065
:102780000228484607D0C8F86000FFF737F900E094
:102790003BE005463CE04746C8F86000FFF72EF9ED
:1027A000064604E0FFF72AF9801B02282DD820688E
:1027B0008001F7D4F5E907010843E9681D4A490893
:1027C00002EB0141AA6841EA82110843297C40EAF0
:1027D0000160297D40EA01711148001F016001205C
:1027E0003866FFF70BF9054605E014E0FFF706F938
:1027F000401B022809D820688001F7D50BE000BFF4
:10280000FFF7FCF8401B022802D90320BDE8F88F2F
:1028100020688001F4D40020F8E70120F6E70000EA
:10282000083802400038024000004742800E47420C
:10283000007000400000FFFF70B5040002D0607F10
:1028400010B106E0012070BD00202077204600F086
:1028500049F8022060772168CA2048622168532025
:102860004862204602F068F9FF25042618BB20685C
:1028700081681B4A11408160216888686268104342
:10288000D4E904231A43104388602168E068086192
:1028900020680169228941EA024101612068C1681A
:1028A00021F08001C16020688068800607D420463E
:1028B00000F000F918B1206845626677C2E7206829
:1028C000016C21F4802101642068016CA26911432C
:1028D00001642068456201206077002070BD00001F
:1028E000BFFF8FFF00680349884202D102490120DF
:1028F00008607047002800403C0E47422DE9F04731
:102900000446007F0B4601281FD04FF0010984F8D0
:102910001C9002206077DAB19878D97840EA0145B6
:1029200058781978000240EA413005432168CA20EE
:102930004862216853204862204602F0FDF80026D4
:10294000FF274FF0040860BB1AE00220BDE8F087C3
:102950005878C10603D500F0EF000A305870D878D7
:1029600002F0DEF80204587802F0DAF842EA0022B7
:10297000987802F0D5F80243187842EA4035D5E756
:102980000F480540206845602068C16821F080013B
:10299000C1602068806880060AD4204600F08AF86A
:1029A00030B12068476284F81D8026770120CDE78A
:1029B0002068476284F81D9026770020C6E7000053
:1029C0003FFFFF002DE9F0470446007F0D46012838
:1029D00011D04FF0010A84F81CA002206077206813
:1029E000002680684FEA406042B100281ADA287851
:1029F00002F08DF817E00220BDE8F087002800DB28
:102A0000EE70287802F08CF80204687802F088F8FA
:102A100042EA0022A87802F083F80243E87842EA0A
:102A200000470AE0EE70A878297840EA0147687804
:102A3000E978000240EA014007432168CA20486261
:102A4000216853204862204602F076F84FF0FF08D4
:102A50004FF00409E0B91648074020680760206875
:102A6000816821F480218160D5E903010843216850
:102A70008A68104388602068C16821F08001C160C5
:102A80002068806880060BD4204600F013F838B127
:102A90002168C1F8248084F81D9026770120ABE7D7
:102AA0002168C1F8248084F81DA026770020A3E7C0
:102AB0007F7F7F0070B504460068C16821F0A001E7
:102AC000C160FEF79BFF05464FF47A7607E000BF32
:102AD000FEF794FF401BB04201D9032070BD20686F
:102AE000C0688006F4D5002070BD10B5FDF716FC57
:102AF00010BDFEB5044603200D4684F83400606C1A
:102B0000032820D0B5F5805F1DD0B5F5006F05D046
:102B100045B1A06B40F00060A06309E0204602F0E0
:102B20005DFD02E0204602F032FDA16B0143A1638E
:102B3000A06B012658B1216840F2FF50886384F8E9
:102B400034600120FEBDA06B40F08050E4E7211D01
:102B5000D4E905700EC90095CDE90170206802F036
:102B60002BF884F834600020FEBD704710B550F893
:102B7000742F120E0A7002684FF6FF73120C03EAEC
:102B800002224A800288C2F307234A881A434A80F5
:102B9000027812064A6042684B68120E43EA02420B
:102BA0004A6042684B68C2F3074243EA02224A6025
:102BB00082884B68C2F3072213434B6002790A7282
:102BC0008268120E4A728268120C1206CA6002896A
:102BD000CB68C2F3072243EA0242CA60027ACB689A
:102BE00043EA0222CA60C268CB6843EA1263CB6040
:102BF000C2680B7CC2F3074243EA12130B7412073C
:102C0000120D4A8282894B8AC2F3072213434B82F8
:102C1000007B4008087501204875002010BDF0B504
:102C2000426E120E93090B70C2F383034B7002F0D5
:102C300003028A70426E120CCA70B0F86420120A45
:102C40000A7190F864204A71826E4FF6FF73120E7B
:102C500003EA0212CA80826ECB88C2F3074243EABB
:102C60001213CB8002F00F020A72B0F86820C2F390
:102C70000722D3094B72C2F380138B72C2F3401345
:102C8000CB72C2F300130B7300264E73446C4FF4E7
:102C9000007701236CB1012C43D0026840F2FF5150
:102CA0009163816B41F08051816380F83430012061
:102CB000F0BD9207120D0A6190F868200C6944EA91
:102CC00082020A61C26E0C69120E44EA92140C610F
:102CD000C2F3C2040C7502F007024A75C26EC2F359
:102CE000074254098C75C2F38204CC759207520FC7
:102CF0000A76B0F86C20C2F307240A7E42EAD412A6
:102D00000A760A69521C42650D7EAD1CAA404265D6
:102D10000D7A03FA05F585656D0A6A43C0E9172740
:102D20001CE090F868209206920A0A61C26E0C6953
:102D3000120E44EA02220A61C26E0C69C2F3074213
:102D400014430C61B0F86C20C2F307240A69521CCA
:102D50004FEA82224265C0E916720766C4F3801208
:102D600001F8192F4FEA84624FEA52624A7010F854
:102D70006C2F4C7844EAD2144C7002F07F028A70B7
:102D800042684FEA12624FEAD214CC70C2F3411487
:102D90000C71C2F382044C714FEA82724FEA1272D4
:102DA0008A7142688C79C2F3074244EA92148C71AA
:102DB000C2F34014CC710E7202F001024A72828892
:102DC000C2F307224FEAD2148C72C2F38014CC7281
:102DD000C2F340140C73C2F300144C73C2F38104A9
:102DE0008C7302F00302CA7300794FEA5000087432
:102DF0004B744FF00000F0BD426C0A60826C4A6078
:102E0000C26C8A60026DCA60426D0A61826D4A615D
:102E1000C26D8A61006EC8610020704770B50446BB
:102E2000B0F8500000250104206802F044F818B101
:102E3000A16B0143A16304E00021206801F0AFFE13
:102E40000546C5F3432070BD70B504460068416B6C
:102E500040F2FF56C9054FF0010548D529028163AC
:102E60002068C16B21F49D71C163206B0007206B4A
:102E700020D5800702D4206B800609D5206802F097
:102E80004BF828B1A16B0143A1632046FFF76DFE0B
:102E90002068866384F83450206BC00702D1206B11
:102EA000800703D5204600F005FA70BD204600F0EB
:102EB00005FA70BD0006FCD5206B800609D5206898
:102EC00002F02AF828B1A16B0143A1632046FFF765
:102ED0004CFE206BC007ECD1206B8007E9D4206842
:102EE000C16A21F00801C16284F83450DEE7416B09
:102EF000490411D54FF480418163D4F82060002546
:102F000006EB8501206801F080FE6D1C082DF7D3CB
:102F1000206A2030206270BD416B090410D54FF447
:102F200000418163A66A0025206801F05BFE46F837
:102F300025006D1C082DF7D3A06A2030A06270BD5B
:102F4000416B11F03A0FFAD0416B890703D5A16BA1
:102F500041F00201A163416B090703D5A16B41F068
:102F60000801A163416B890603D5A16B41F02001E3
:102F7000A163416BC90603D5A16B41F01001A163A8
:102F800086632068C16B21F49D71C163206B0006CC
:102F900023D5206C58B115490165206CFEF752FA13
:102FA0000028CCD0206CBDE8704002F09EB9E06BE8
:102FB00058B10F490165E06BFEF744FA0028BED016
:102FC000E06BBDE8704002F065B90020A06384F8B2
:102FD00034502046FFF789FD70BD206B0007FBD5FC
:102FE00084F834502046FFF7C0FD70BDEB52000856
:102FF0009552000870B5040004D094F83400002500
:1030000010B105E0012070BD2577204600F038F8AA
:10301000032084F83400204600F008F8A5632563F7
:10302000012084F83400002070BD0000FEB50025AA
:10303000044676200095CDE901502B462A462946C4
:10304000206801F0B9FD0D4E46F8A05F206801F040
:10305000C5FD012535600220FEF77CFB204602F00D
:1030600045FA20B9204602F0CEF9002805D084F8B0
:103070003450A16B0143A1630120FEBD00802542B5
:103080002DE9F04F87B0054614216846FDF70AF98F
:103090004549286888427DD144480068434940F446
:1030A00000600860086800F4006005903F4814382C
:1030B00000683E4940F0040014390860086800F0D8
:1030C00004000590086840F008000860086801AA3C
:1030D00000F0080005904FF4F85000900220012401
:1030E00003264FF00C0882E8510169463048FEF78C
:1030F000A9FB042701AA0220009782E85101694632
:103100002C48FEF79FFB2D4C2B484FF00068C4E97C
:10311000000800204FF48069A060C4E90309B802E8
:103120004FF4804BC4E9050BC4E909764FF0200A3F
:103130000020C4E907A07E05B7102046C4E90B674C
:10314000FEF762FA08B1FDF75FFBEC63A5631B4C69
:10315000194860344830C4E900084020A0600020CD
:10316000C4E90309C4E907A00420606204F128024D
:10317000032082E8C1004FF48051C4E9051B2046BA
:10318000FEF742FA08B1FDF73FFB00222C6411461E
:10319000312000E005E0A563FEF7F2FE3120FEF7E6
:1031A000E3FE07B0BDE8F08F002C01404438024038
:1031B00000080240000C0240586402405CDD04201C
:1031C0002DE9F043154687B01F460A00044607D094
:1031D00094F83400012807D0022007B0BDE8F0833E
:1031E000A06B40F0006008E00020A063E36DE919E7
:1031F000994204D9A06B40F00070A06351E0032114
:1032000084F8341021688146C8622168CB6B43F48E
:103210009573CB63E36B24494FEA4728D963E36B8B
:103220002249D964E16B4FEA980308652168E06B95
:103230008031FEF753FA1E4801260660606C0128B3
:1032400000D06D024FF0FF30CDE9000890200290D1
:1032500002200596CDE903096946206801F089FC42
:103260004FF40071206801F009FD40F2FF5880B969
:10327000012F06D9822020632946206801F08CFDA9
:1032800005E0812020632946206801F09EFD00288A
:10329000A3D02268C2F83880A16B0143A16384F8EF
:1032A0003460012099E700005752000801520008DD
:1032B0008C85254210B5FDF76DF810BD10B5FDF7F2
:1032C0007DF810BD2DE9F04F87B01F4615465FEA27
:1032D000010B044607D094F83400012807D00220DF
:1032E00007B0BDE8F08FA06B40F0006008E0002060
:1032F000A063E26DE919914204D9A06B40F000701F
:10330000A06339E0032184F8341021688046C86244
:103310002168CA6B42F01A02CA63226C2349D16346
:10332000226C2349D164216C0865606C012800D0AF
:103330006D024FF40071206801F0A0FC012640F2FC
:10334000FF5988B94FF0900A012F06D9A0202063B9
:103350002946206801F0FAFD05E0C4F830A02946AE
:10336000206801F00CFE48B12268C2F83890A16BC9
:103370000143A16384F834600120B1E70D48066081
:1033800022687D02AB0859468032206CFEF7A6F910
:103390004FF0FF308DE82104CDE90486CDF80C8094
:1033A0006946206801F0E5FB002099E7DD5200083E
:1033B000015200088C85254210B5401EB0F1807F77
:1033C00001D3012010BD4FF0E02460610F21601790
:1033D00001F03FFA0020A06107202061002010BD0D
:1033E0007047704730B590F83820012A20D001226C
:1033F00080F83820022380F8393003685C6824F0B4
:1034000070045C6003685C680D682C435C60036852
:103410009C6824F080049C6003689C6849680C43A5
:103420009C6080F83920002180F83810084630BDB3
:10343000022030BD10B5040003D094F8390010B15B
:1034400007E0012010BD002084F83800204600F07D
:103450000DF8022084F83900211D206802F044FB99
:10346000012084F83900002010BD000008B5016873
:103470001448B1F1804F14D0134A914220D1016811
:1034800041F0020101600068002200F0020000909B
:1034900011461D20FEF774FD1D20BDE80840FEF713
:1034A00063BD016841F0010101600068002200F085
:1034B0000100009011461C20FEF762FD1C20ECE785
:1034C00008BD000040380240000400400168CA689E
:1034D00042F00102CA600068016841F00101016028
:1034E0000020704770B5044690F83800012817D0C6
:1034F000012584F83850022084F839002068826859
:1035000022F0770222F47F4282600868502837D088
:103510000DDC202859D005DC88B3102841D151E0BA
:10352000022070BD302853D040283AD13FE06028B7
:103530002ED070280BD0B0F5805F03D0B0F5005FBF
:103540002FD110E02068816821F0070115E0CB68D9
:10355000D1E90121206802F027FB2168886840F04A
:10356000770088601DE0CB68D1E90121206802F076
:103570001BFB2068816841F48041816011E01EE0FE
:10358000CA684968206802F021FB5021206806E0E3
:10359000CA684968206802F02AFB6021206802F0AE
:1035A0000DFB84F83950002084F8380070BDCA68DB
:1035B0004968206802F00AFB40212068EFE70021FB
:1035C0002068ECE710212068E9E720212068E6E781
:1035D00030212068E3E7704770B504460068016950
:1035E0004FF00005C943890715D4C168C94389074D
:1035F00011D4E91E016101202076206880698007CE
:10360000204602D0FFF7E7FF04E000F098F82046DC
:1036100000F096F8257620680169C943490717D458
:10362000C168C943490713D46FF004010161022046
:1036300020762068806910F4407F204602D0FFF792
:10364000CAFF04E000F07BF8204600F079F8257608
:1036500020680169C943090716D4C168C94309072D
:1036600012D46FF008010161042020762068C0693F
:103670008007204602D0FFF7AEFF04E000F05FF8BD
:10368000204600F05DF8257620680169C943C90627
:1036900017D4C168C943C90613D46FF01001016182
:1036A000082020762068C06910F4407F204602D0B0
:1036B000FFF791FF04E000F042F8204600F040F8E8
:1036C000257620680169C943C90708D1C168C94383
:1036D000C90704D1891E0161204600F033F8206833
:1036E0000169C943090609D4C168C943090605D45B
:1036F0006FF0800101612046FFF772FE20680169CA
:10370000C943490609D4C168C943490605D46FF0C5
:1037100040010161204600F0BDF820680169C943FD
:1037200089060BD4C168C943890607D46FF020010C
:1037300001612046BDE87040FFF753BE70BD704781
:103740007047000070B533490646006809680025D7
:10375000314C88420DD194F82000632809D0E18DC6
:10376000491C89B2E185B1F5FA7F02D9E58500F0FF
:1037700045FD2A4930680968884249D1207E70B1E8
:10378000617E27A002F0D8FC607E401CC0B260764B
:10379000022804D927A002F0CFFCFEF723FC607CAE
:1037A000002835D0A07E002832D1E078012690B1E3
:1037B000E06D401CE065A06D401CA06505280AD99D
:1037C0002565A565E57021A002F0B6FCA67702216B
:1037D000012000F0E3FC206D401C2065032813D974
:1037E000A07B88B9A6731FA002F0A6FC264A4FF45E
:1037F0000073A384A2F50071244800F0EDF90122C2
:1038000091022348FEF7F4F8206D0A2800D92565B7
:1038100070BD00001CDE04200000002058DE0420E3
:10382000675F6D6F756E745F636E743D25640D0A1E
:1038300000000000B9D2D4D8CAA7B0DCA3ACCFB581
:10384000CDB3D6D8C6F40D0A000000003673206E42
:103850006F20646174612072656365697665640DCB
:103860000A0000005245534554205541525431201E
:10387000444D412C204849474820504231302C20AB
:10388000494F2D300D0A0000A417002094DE0420BB
:10389000000402407047704770B502680446106823
:1038A000D168536910F00F0F51D003F0010501F4F6
:1038B000907635435DD0C20705D0CA0503D5E26BCB
:1038C00042F00102E263420705D5DA0703D0E26B5A
:1038D00042F00202E263820705D5DA0703D0E26B09
:1038E00042F00402E263020705D5DA0703D0E26B77
:1038F00042F00802E263E26B002A34D0800604D56D
:10390000880602D5204602F009FA20684069E16B7A
:10391000C0F3801001F008010143204624D002F0DA
:10392000E6F92068416949061AD5416921F040014C
:103930004161606BA0B11B490165606BFDF782FDC1
:10394000002810D0606B016DBDE870400847830609
:103950000FD58B060DD52046BDE8704002F0DEB9CC
:103960002046FFF798FF70BDFFF795FF0020E0634A
:1039700070BD030606D50B0604D52046BDE8704091
:1039800002F068BB4006F3D54806F1D5D168204661
:1039900021F04001D160202184F8391000F02CFA88
:1039A00070BD0000135C000870B5040004D094F8EA
:1039B0003900002510B106E0012070BD84F83850B0
:1039C000204600F023F8242084F839002068C168DC
:1039D00021F40051C160204602F0E6F92068016937
:1039E00021F4904101612068416921F02A0141617F
:1039F0002068C16841F40051C160E563202084F86B
:103A0000390084F83A00002070BD00002DE9F04F25
:103A100087B0044614216846FCF744FCDFF8808137
:103A20000221D4F800C05F480122032307270025A4
:103A30008E064FF4807A4FF0400B4FF48069C445F6
:103A400053D1DFF860C10CF1140CDCF8008048F0B1
:103A50001008CCF80080DCF800C00CF0100CCDF899
:103A600014C0D0F800C04CF0020CC0F800C00068D0
:103A700000F002000590C0208DE88F0069464A489A
:103A8000FDF7E0FE4A4F4948C8463860C7E901657E
:103A9000C7E903597D61C7E9065A4FF44030C7E9C9
:103AA00008053846FDF7B0FD08B1FCF7ADFE6763C9
:103AB000BC633F4F3D4860377830C7E903587D61AC
:103AC000BD61FD613D627D6287E841083846FDF7D2
:103AD0009BFD08B1FCF798FE2763002211462520C4
:103AE000BC63FEF74DFA252054E0DFF8C880C445DA
:103AF00052D1DFF8B0C00CF1100CDCF8008048F4B3
:103B00000038CCF80080DCF800C00CF4003CCDF8A4
:103B100014C0D0F800C04CF0010CC0F800C0006820
:103B200000F0010005900C208DE88F0069462248C6
:103B3000FDF788FE1E4F2148C037C8463860C7E9E8
:103B40000165C7E903597D61C7E9065A3D623846F8
:103B50007D62FDF759FD08B1FCF756FE6763BC6353
:103B6000174F1648C7E903587D61BD61FD613D628D
:103B700018307D6287E841083846FDF745FD08B1F9
:103B8000FCF742FE2763002211462620BC63FEF7A5
:103B9000F7F92620FEF7E8F907B0BDE8F08F00003E
:103BA00000100140303802400004024040640240EE
:103BB00014DF0420004400400000024088600240FE
:103BC00034E004200349884202D1012001F07EBE86
:103BD0007047000094DE0420F8B5044690F83A00DF
:103BE00020283ED1D1B3CBB394F83800012838D087
:103BF000012084F83800A162A3850025E563222016
:103C000084F83A00666B1848F063666B1748706476
:103C1000666B17483064666B1648F064606B056528
:103C2000009313460A462168606B091DFCF74AFFA2
:103C3000206801684168009184F83850C16841F4F7
:103C40008071C1602068416941F0010141612068D3
:103C5000416941F0400141610020F8BDFFE70120CA
:103C6000FBE70220F9E70000A95C00086D5C000892
:103C7000E55C0008235C0008F8B5044690F83A00BB
:103C800020283CD1C1B3BAB394F83800012836D00B
:103C9000012084F83800A162A2850025E563222076
:103CA00084F83A00636B1748D863636B164818644E
:103CB000636B1648D864606B134605650846666BEF
:103CC000216802463046091DFDF708FD206801689D
:103CD0004168009184F83850C16841F48071C16036
:103CE0002068416941F0010141612068416941F06A
:103CF000400141610020F8BDFFE70120FBE7022001
:103D0000F9E70000A95C0008E55C0008235C0008F6
:103D100010B504460648844202D1002001F0D6FDC9
:103D20000448844202D104490120087110BD0000FA
:103D300094DE0420D4DE04200000002070472DE92A
:103D4000F843044690F839001F4616460D462028D1
:103D500050D1A5B19EB194F8380001284AD0012075
:103D600084F838004FF00008C4F83C80212084F823
:103D70003900FDF743FEA6848146E68426E0012053
:103D8000BDE8F883E08C401EE084A0684B46B0F5A7
:103D9000805F4FF000024FF080012046009703D073
:103DA00002F089F9E8B90DE002F085F9C8B9288870
:103DB0002168C0F308004860206908B16D1C05E067
:103DC000AD1C03E0216815F8010B4860E08C002869
:103DD000D8D14B46002240212046009702F06BF9D3
:103DE00008B10320CCE7202084F8390084F838801B
:103DF0000020C5E70220C3E77047FEE701684A6973
:103E0000D24352050CD46FF480624A6104210164EC
:103E1000002140F8301F20224273017301207047B7
:103E2000002070472DE9F84F0446006889460B9D35
:103E300001689846174641F4806101602068016876
:103E400041F48071016000954FF0011A0022514643
:103E500020460A9B00F0D5F8F0BB216809F0FE006F
:103E600008610AF1010B2B46594620460A9A00F0D8
:103E7000F9F818B1206C042812D03AE020684169A2
:103E8000806900902A4620460A9900F060F950B1F6
:103E9000206C04282DD12068016841F40071016074
:103EA0000120BDE8F88FFEB2B8F1010F09D02168FA
:103EB000380A08612A4620460A9900F048F9002885
:103EC000E6D1206806612A4620460A9900F03FF9AB
:103ED0000028DDD1206800E00BE0016841F480712A
:103EE000016000950022514620460A9B00F089F8A7
:103EF00008B10320D5E7216809F0FF0040F0010078
:103F000008612B46594620460A9A00F0ABF8002873
:103F1000B0D1C6E72DE9F843044600680D46DDE957
:103F2000089701689846164641F4807101604B4637
:103F300000224FF001112046009700F062F8E8B926
:103F4000216805F0FE0008613B464A4618492046B4
:103F500000F088F828B1206C04280FD10120BDE8BA
:103F6000F88320684169806900903A4649462046B6
:103F700000F0EDF820B1206C042813D00320EEE708
:103F8000F5B2B8F1010F09D02168300A08613A464C
:103F90004946204600F0DBF80028ECD12068056196
:103FA0000020DCE72068016841F400710160D5E77A
:103FB0000200010070B516460D4604461AE0204680
:103FC000FFF71CFF08B1012070BD681C12D025B19D
:103FD000FDF714FD801BA8420CD954F8400F40F0A7
:103FE000200044F810090020206020216173207314
:103FF000032070BD20684069C0434007DFD4002023
:1040000070BD2DE9F0471E4690460D460446C1F3AB
:104010000747DDF8209012E0701C10D02EB1FDF79C
:10402000EDFCA0EB0900B04209D9002044F8300FA4
:1040300020216173A07320730320BDE8F0872068FE
:10404000012F0AD0806925EA00000004000C06D088
:1040500000214145E0D00020EFE74069F3E701216E
:10406000F7E700002DE9F0479A4691460D460446D1
:1040700000264FF02008C1F307472AE02068406976
:10408000C043400512D42068016841F4007101600A
:1040900021686FF48060486104202064266384F8FE
:1040A0003D8084F83C600120BDE8F087B9F1FF3F16
:1040B0000FD0B9F1000F05D0FDF7A0FCA0EB0A016D
:1040C000494506D944F8306F84F80D8026730320E3
:1040D000EAE72068012F07D0D0F8180025EA000091
:1040E0000004000CE0D0C9E74069F7E72DE9F04192
:1040F000002590460E460446202721E04069C04333
:10410000C0060CD421686FF0100048612564256357
:1041100084F83D7084F83C500120BDE8F0812EB158
:10412000FDF76CFCA0EB0800B04209D954F8400F31
:1041300040F0200044F80409677025700320ECE784
:1041400020684169C9434906D8D40020E5E770B525
:1041500016460D4604461AE02046FFF74FFE08B10A
:10416000012070BD681C12D025B1FDF747FC801BF3
:10417000A8420CD954F8400F40F0200044F8100930
:1041800000202060202161732073032070BD20680F
:104190004069C0430006DFD4002070BD2DE9F04126
:1041A000134E144F88460546002400BF36F81410FD
:1041B00057F824000122FDF71BFC641CE4B2032C19
:1041C000F4D30D486321B8F1020F80F8201006D017
:1041D000B8F1010F01D180F82050BDE8F08136F828
:1041E000151057F82500BDE8F0410022FDF700BC8E
:1041F000849C00086C000020000000200349044A51
:1042000031F8101052F82000FDF7EEBB849C000836
:104210006C000020214808B5016841F4800101606C
:10422000016801F480010091016841F4001101600E
:104230000068002200F40010009011461020FDF7E5
:104240009FFE1020FDF790FE002211461120FDF781
:1042500097FE1120FDF788FE002211463A20FDF757
:104260008FFE3A20FDF780FE002211463B20FDF72D
:1042700087FE3B20FDF778FE002211464520FDF722
:104280007FFE4520FDF770FE002211464620FDF717
:1042900077FEBDE808404620FDF766BE3038024094
:1042A00010B504490448FCF7B0FA0249491E0870E9
:1042B00010BD0000850000208C9C00082DE9F04115
:1042C00086B014216846FBF7EDFF384800240168EA
:1042D00041F004010160016801F0040105910168E9
:1042E00041F001010160016801F0010105910168DF
:1042F00041F002010160016801F0020105910168CD
:1043000041F0080101600068DFF8A48000F00800B7
:10431000059001220E214046FDF76AFB254F4FF420
:104320008066002231463846FDF762FB0E20009081
:104330000125CDE90154694640460394FDF782FA10
:10434000CDE900650225CDE9025469463846FDF7FE
:1043500079FAE80200901848CDE901056946384627
:10436000FDF770FA154D8020CDE9000569460294ED
:104370004046FDF767FA7001CDE9000569460294F1
:104380000F48FDF75FFA002211461720FDF7F8FDF0
:104390001720FDF7E9FD002211462820FDF7F0FD6A
:1043A0002820FDF7E1FD06B0BDE8F081303802407D
:1043B000000802400004024000003110000011100B
:1043C000000002400D4810B50B4901600C494160E6
:1043D00000214FF480428160C0E903124161816194
:1043E000C1610162FDF710FB002803D0BDE8104059
:1043F000FCF70ABA10BD00000054004064DC042041
:10440000A08601000B4810B50949016000217F22F8
:10441000C0E90112FF22C0E9032141618161FEF779
:104420000BFA002803D0BDE81040FCF7EDB910BD31
:1044300000280040B8DC042006480549016000213E
:1044400041608160C1600161416102218161704709
:10445000002C0140D8DC042010B586B0002416489A
:10446000009401940294039404944FF080410594C5
:10447000016041F6FF01C0E901140921C0E90314FC
:10448000FEF7D8FF08B1FCF7BFF94FF48050009059
:1044900069460948FFF726F808B1FCF7B5F9049416
:1044A00004A905480594FEF79DFF002801D0FCF7FC
:1044B000ABF906B010BD00001CDE042010B586B0BC
:1044C000002417480094019402940394049413491F
:1044D0000594016041F6FF01C0E9011442F20F7139
:1044E000C0E90314FEF7A6FF08B1FCF78DF94FF4FD
:1044F0008050009069460A48FEF7F4FF08B1FCF7C7
:1045000083F9049404A906480594FEF76BFF00287C
:1045100001D0FCF779F906B010BD0000000400409E
:1045200058DE04200C4810B50A4901600B4941606F
:10453000002181600C22C160C0E904128161C16167
:10454000FFF732FA002803D0BDE81040FCF75CB951
:1045500010BD00000010014094DE042080841E0085
:104560000C4810B50A4901604FF4E1314160002167
:1045700081600C22C160C0E904128161C161FFF752
:1045800013FA002803D0BDE81040FCF73DB910BD78
:1045900000440040D4DE0420FEE70000F8B500250A
:1045A0003948FEF73BFC394C0428607004D038A031
:1045B00001F0C2FD0020F8BD39493348FEF7D6FAB4
:1045C00038A001F0B9FD40A001F0B6FD2E4ED6E9AD
:1045D0001501A1FB002342A001F0AEFD47A0B16D83
:1045E00001F0AAFD4BA0316D01F0A6FD4FA0716C4A
:1045F00001F0A2FD2A48017852A001F09DFD57A0CC
:1046000001F09AFD01270026277601225AA15B4876
:1046100003F03EFD207001460D2805D000292CD066
:1046200057A001F089FD1BE06D1CEDB229465EA08C
:1046300001F082FD002DE7D0002565A001F07CFD92
:1046400026764FF48060164B002200904C331146C2
:1046500049A002F0BBFF207028B163A001F06CFDFF
:10466000FDF7C0FCD0E766A001F066FD012242A183
:10467000002003F00DFD2070F2E76AA001F05CFD60
:10468000267666760120F8BDD8DC042000000020E4
:104690004E6F20534443617264202121210D0A0092
:1046A00058050020496E697469616C697A65205308
:1046B0004420436172642073756363657373667528
:1046C0006C6C79210D0A00005344206361726420F0
:1046D000696E666F6D6174696F6E0D0A000000008F
:1046E00043617264436170616369747920202020A2
:1046F000203A20256C6C750D0A000000436172643D
:10470000426C6F636B53697A65202020203A202524
:10471000640D0A0052434120202020202020202028
:1047200020202020203A2025640D0A004361726475
:10473000547970652020202020202020203A202538
:10474000640D0A004D616E75666163747572657201
:1047500049442020203A2025640D0A00A1B7BCEC72
:10476000B2E2B5BD5344434152442CB3A2CAD4B9BA
:10477000D2D4D80D0A000000303A0000C800002052
:10478000A3A1A3A1B4AED0D0464C415348B9D2D4D2
:10479000D8CEC4BCFECFB5CDB3CAA7B0DCA1A32888
:1047A0002564290D0A000000A1B7B4AED0D0464C54
:1047B000415348BBB9C3BBD3D0CEC4BCFECFB5CDEB
:1047C000B3A3ACB3A2CAD420256420B4CE0D0A0092
:1047D000A1B7BCB4BDABBDF8D0D0B8F1CABDBBAFBA
:1047E0002E2E2E0D0A000000A1B6A1B6B8F1CABD4A
:1047F000BBAFCAA7B0DCA1A3A1B7A1B70D0A000047
:10480000A1B7B4AED0D0464C415348D2D1B3C9B908
:10481000A6B8F1CABDBBAFCEC4BCFECFB5CDB3A167
:10482000A30D0A00A1B7CEC4BCFECFB5CDB3B9D29B
:10483000D4D8B3C9B9A6A3ACBFC9D2D4BDF8D0D01F
:10484000B6C1D0B4B2E2CAD420200D0A00000000E4
:1048500070470907090E002806DA00F00F0000F182
:10486000E02080F8141D704700F1E02080F800146B
:104870007047000010B50022114B3C3910E004785D
:10488000FD2C0AD14478A62C07D184782CB1E1B252
:10489000084410F8070C587304E0521C92B2401CF4
:1048A0008A42ECDB597B31B1FF2904D005A001F02D
:1048B00043FC002010BD07A001F03EFC012010BD0C
:1048C00000000020675F6465765F69643D25640DC4
:1048D0000A0000007061727365206465765F696428
:1048E000206661696C0D0A0030B5584C87B020789D
:1048F000FD287DD16078A6287AD1A0780E2877D1BE
:10490000E078032854D1607BFF2871D15048A17909
:104910001022C1708DF81210E17941708DF81110DC
:10492000217A81708DF81010617A01708DF80F1066
:1049300004F12000A17A01708DF80E10E17A417027
:104940008DF80D10217B8170B3208DF80C108DF83F
:104950001300082103A88DE8070001230022D021BD
:104960003C48FDF7D3F908B13BA000E040A001F0BE
:10497000E3FB012236494348FDF7C0FF33490122DA
:1049800020314048FEF71EF81E213048FBF78AFC14
:104990003DA001F0D1FBFBF7FFFFFBF701FF207803
:1049A000FD2850D16078A6284DD1A0780E284AD194
:1049B000274DE078683D042816D1607BFF2842D15E
:1049C00037A001F0B9FB02210846FFF7E7FB012001
:1049D000E874002068742078FD2834D16078A62817
:1049E00031D1A0780E282ED1E07805282BD100E017
:1049F00029E0607BFF2826D12EA001F09DFB4FF41B
:104A00008060124B00220090343311462FA002F038
:104A1000DDFD287028B107B02DA0BDE8304001F0C1
:104A20008BBB31A001F088FB012228A1002003F0FC
:104A30002FFB28704FF47A70FCF78CFE07B0BDE8AE
:104A40003040FDF7CFBA07B030BD00007005002040
:104A50006800002064DC04207361766520525443B2
:104A60002074696D65206661696C0D0A00000000A4
:104A700073617665205254432074696D65206F6BB5
:104A80000D0A0000B8DC0420636865636B2074685D
:104A90006520646174652F74696D650D0A000000FE
:104AA000556E6D6F756E74207364636172640D0A68
:104AB00000000000A1B7BCB4BDABBDF8D0D0B8F1C8
:104AC000CABDBBAF2E2E2E0D0A000000303A0000EA
:104AD000A1B6A1B6B8F1CABDBBAFCAA7B0DCA1A34D
:104AE000A1B7A1B70D0A0000A1B7B4AED0D0464C13
:104AF000415348D2D1B3C9B9A6B8F1CABDBBAFCEF4
:104B0000C4BCFECFB5CDB3A1A30D0A007047010907
:104B100001EB810100F00F0000EB4100C0B27047D3
:104B2000002102E00A38C0B2491C0A28FAD209075B
:104B300040EA11607047000070B504460068C16823
:104B4000490614D44FF0FF31C160FCF757FF05460A
:104B50004FF47A7607E000BFFCF750FF401BB042ED
:104B600001D9032070BD2068C0684006F4D500203C
:104B700070BD0A6842624A688262D1E902231A4320
:104B8000D1E904310B43C16A1A4321F0F701114303
:104B9000C16200207047006800F00300704708B54C
:104BA000084414300090006808BD00000148FEF77A
:104BB0004BB90000D8DC042070B50DF1100C114386
:104BC0009CE870002343194329434268314347F668
:104BD000FF639A430A434260002070BD03210160D5
:104BE00000207047D0F8800070470A688260D1E9E1
:104BF00001231A43D1E903310B43C1681A436FF310
:104C00000B011143C160002070470968C0F8801093
:104C10000020704710B586B004463720CDE900105B
:104C200040200290002003904FF480600490694679
:104C30002046FFF7DAFF41F288323721204600F0A4
:104C4000B7F906B010BD000010B504460A4886B09A
:104C500001432920CDE9001040200290002003905C
:104C60004FF48060049069462046FFF7BEFF20465F
:104C700000F054FA06B010BD0000108010B586B0E8
:104C800004461020CDE9001040200290002003903F
:104C90004FF48060049069462046FFF7A6FF41F27A
:104CA00088321021204600F083F906B010BD10B5FF
:104CB00086B004460620CDE9001040200290002076
:104CC00003904FF48060049069462046FFF78DFF03
:104CD00041F288320621204600F06AF906B010BD84
:104CE00030B585B000240546009401944FF48060EF
:104CF0000294CDE9034069462846FFF776FF0B484A
:104D00004FF4FA510068B0FBF1F041F288314843AA
:104D1000401E03D24FF0004005B030BD696B09065C
:104D2000F6D540F2FF50A8632046F5E79800002032
:104D300070B585B004464FF4D57000900820402629
:104D4000CDE901060025C001CDE9035069462046A2
:104D5000FFF74BFF0F484FF4FA510068B0FBF1F03A
:104D600041F288314843401E02D24FF000450DE029
:104D7000616B11F0450FF6D0606B400702D5A6635A
:104D8000042503E0606B400600D5A66305B0284605
:104D900070BD00009800002010B586B004461220B7
:104DA000CDE9001040200290002003904FF4806075
:104DB000049069462046FFF718FF41F2883212211D
:104DC000204600F0F5F806B010BD10B586B00446D8
:104DD0001120CDE9001040200290002003904FF4F4
:104DE0008060049069462046FFF7FFFE41F288325A
:104DF0001121204600F0DCF806B010BD10B586B0D9
:104E000004460720CDE900204020029000200390B6
:104E10004FF48060049069462046FFF7E6FE41F2B9
:104E200088320721204600F0C3F806B010BD10B547
:104E300086B0044600210220CDE90010C020CDE953
:104E400002014FF48060049069462046FFF7CDFED2
:104E5000204600F03BF906B010BD10B586B0044600
:104E60000920CDE90010C0200290002003904FF4EB
:104E70008060049069462046FFF7B7FE204600F0A8
:104E800025F906B010BD10B586B0044600213320C8
:104E9000CDE900104020CDE90201000104906946EF
:104EA0002046FFF7A2FE41F288323321204600F06F
:104EB0007FF806B010BD10B586B004460D20CDE9D0
:104EC000001040200290002003904FF48060049076
:104ED00069462046FFF789FE41F288320D212046BF
:104EE00000F066F806B010BD30B585B00C4605463A
:104EF00000210320CDE900104020CDE9020100018E
:104F0000049069462846FFF770FE22460321284692
:104F100000F024F905B030BD10B586B0044600217C
:104F20000C20CDE900104020CDE9020100010490E1
:104F300069462046FFF759FE034A0C21204600F03F
:104F400037F806B010BD000000E1F50510B586B0D9
:104F500004461920CDE90010402002900020039063
:104F60004FF48060049069462046FFF73EFE41F210
:104F700088321921204600F01BF806B010BD10B58C
:104F800086B004461820CDE9001040200290002091
:104F900003904FF48060049069462046FFF725FE99
:104FA00041F288321821204600F002F806B010BD08
:104FB000444B10B51B684FF4FA54B3FBF4F353435E
:104FC0005B1E02D24FF0004010BD426B12F0450F45
:104FD000F6D0426B520703D504218163084610BD09
:104FE000426BD20702D00121816303E00269D2B291
:104FF0008A4201D0012010BD40F2FF51816300219F
:10500000FFF7CDFD3049084201D1002010BD002836
:1050100002DA4FF0007010BD410001D5402010BDF4
:10502000810001D5802010BDC10002D54FF48070F1
:1050300010BD010102D54FF4007010BD410102D531
:105040004FF4806010BDC10102D54FF4006010BD67
:10505000010202D54FF4805010BD410202D54FF439
:10506000005010BD810202D54FF4804010BDC10236
:1050700002D54FF4004010BD410302D54FF400307B
:1050800010BD810302D54FF4802010BDC10302D5AD
:105090004FF4002010BD010402D54FF4801010BD64
:1050A000410402D54FF4001010BD810402D54FF425
:1050B000800010BD000702D54FF4000010BD4FF472
:1050C000803010BD9800002008E0FFFD12494FF429
:1050D000FA520968B1FBF2F141F288325143491E9C
:1050E00002D24FF000407047426B12F0450FF6D0ED
:1050F000416B490703D50421816308467047416B22
:10510000C90703D0012181630846704740F2FF516F
:105110008163002070470000980000200E494FF482
:10512000FA520968B1FBF2F141F288325143491E4B
:1051300002D24FF000407047426B12F0450FF6D09C
:10514000416B490703D5042181630846704740F24B
:10515000FF51816300207047980000201F4B10B55D
:105160001B684FF4FA54B3FBF4F341F28834634301
:105170005B1E02D24FF0004010BD446B14F0450F8F
:10518000F6D0436B5B0703D504218163084610BD4D
:10519000436BDB0702D00121816303E00369DBB2CB
:1051A0008B4201D0012010BD40F2FF5181630021EC
:1051B000FFF7F5FC10F4604F04D0410406D54FF41E
:1051C000005010BD000C1080002010BD000402D55E
:1051D0004FF4805010BD4FF4803010BD9800002077
:1051E00010B5064C01202070FBF7A0F818B9207804
:1051F00020F001002070207810BD00007800002011
:1052000010B5846BE06B406D012803D0206C406DBD
:1052100001281CD1216840F2FF5088632068C16BCF
:1052200021F49D71C163A06B40F08040A0632046D3
:10523000FDF7F4FD062801D0052805D12068FFF709
:105240006BFEA16B0843A063012084F83400204664
:10525000FDF78BFC10BD10B5846B206B822809D143
:105260002068FFF759FE28B1A16B0143A1632046D6
:10527000FDF77BFC2068C16A21F00801C16221684A
:1052800040F2FF508863012084F834002046FEF786
:1052900011F810BD70B5846B0025E06B00B1E563BB
:1052A000206C002816D12046FDF7B8FDA56301212A
:1052B00084F83410062801D005280BD12068FFF7A8
:1052C0002BFEA16B0843A063A06B0028204602D0F0
:1052D000FDF70BFC70BDFDF748FC70BD806B0068EE
:1052E000C16B41F48071C163704770B5846B002558
:1052F000206C00B12564E06B002816D12046FDF734
:105300008DFDA563012184F83410062801D00528FD
:105310000BD12068FFF700FEA16B0843A063A06BD0
:105320000028204602D0FDF7E0FB70BDFDF71DFC14
:1053300070BD2DE9F04F89B00E460446FCF75EFBC8
:1053400000258346009501952F4608212068FFF728
:1053500095FC002834D1B4F8500001042068FFF710
:1053600059FC00282CD1401E4FF00808CDE9020856
:1053700030204FF00209CDE904090120CDE9067083
:1053800002A92068FFF7F5FB2068FFF77CFD0028E5
:1053900016D1EA4640F22A472068416B394212D1C1
:1053A000416B890204D5FFF71DFC4AF825006D1CEE
:1053B000FCF724FBA0EB0B00401CEDD14FF00040AC
:1053C00009B0BDE8F08F416B090703D5C0F83880FC
:1053D0000820F5E7416B890703D5C0F83890022013
:1053E000EEE7416B890603D5202181630846E7E794
:1053F00040F2FF518163009800BA7060019800BAD2
:1054000030600020DCE710B590B004460120ADF814
:1054100038002068FFF7BFFB002864D0606C0328C9
:1054200042D02068FFF703FD00285AD100212068F0
:10543000FFF7B5FB606704212068FFF7B0FBA067AA
:1054400008212068FFF7ABFBE0670C212068FFF71D
:10545000A6FBC4F88000606C032825D00EA9206844
:10546000FFF742FD00283CD1606C03281CD0BDF83A
:105470003800206501042068FFF7EFFC002830D1D8
:1054800000212068FFF78BFB606604212068FFF78E
:1054900086FBA06608212068FFF781FBE0660C21EF
:1054A0002068FFF77CFB206704212068FFF777FB6B
:1054B000000DE06403A92046FDF7B1FBB4F85000ED
:1054C000002302042068FFF799FC002809D104F1A9
:1054D000100007C88DE8070094E80F00FFF76CFB89
:1054E000002010B010BD4FF08060FAE72DE9F843BE
:1054F0000025044600950068FFF7F2FB00281AD14A
:105500002068FFF715FC4FF080784FF6FF76D8B192
:105510004FF08057A5640098411C0091B0421AD00A
:1055200000212068FFF776FB20B900212068FFF7F3
:105530008BFB10B13846BDE8F88300212068FFF7E7
:105540002EFBC00FE7D01FE00127A7640098411C85
:105550000091B04201D14046EDE700212068FFF7FD
:1055600059FB0028E7D14FF080412068FFF76CFB22
:105570000028E0D100212068FFF711FBC10FE5D022
:10558000400001D5676400E065640020D3E71CB5E6
:10559000044600200090019000212068FFF7FFFAE8
:1055A000800102D54FF400601CBD69462046FFF71C
:1055B000C0FE0028F8D10198C0030CD5B4F8500003
:1055C00001042068FFF726FB0028EDD100212068A8
:1055D000FFF76DFB1CBD4FF080601CBD1CB5044681
:1055E00000200090019000212068FFF7D8FA800188
:1055F00002D54FF400601CBD69462046FFF799FEB6
:105600000028F8D1019840030CD5B4F850000104EB
:105610002068FFF7FFFA0028EDD102212068FFF78C
:1056200046FB1CBD4FF080601CBD000070B5064CF1
:10563000054601202070FAF785FE18B92846FFF7C5
:10564000CFFD2070207870BD7800002010B5124882
:1056500088B014460078C00702D0032008B010BDFF
:10566000C1B1012905D0022908D003290CD004209A
:10567000F4E76846FAF754FE06980AE06846FAF737
:105680004FFE0798208005E06846FAF749FE079824
:10569000400A20600020E1E7780000202DE9F04179
:1056A000184C4FF00008164608460125C4F808803B
:1056B0001A463146FAF760FEF0B9FCF79FF9064644
:1056C00047F23057A06820B9FCF798F9801BB84220
:1056D000F8D3A06828B1C4F80880FCF78FF9044615
:1056E00005E0012508E000BFFAF720FE38B1FCF71D
:1056F00085F9001BB842F7D32846BDE8F0810025A4
:10570000FAE7000078000020FFF76ABD2DE9F041BC
:10571000184C4FF00008164608460125C4F80480CE
:105720001A463146FAF73CFEF0B9FCF767F906462F
:1057300047F23057606820B9FCF760F9801BB84227
:10574000F8D3606828B1C4F80480FCF757F9044620
:1057500005E0012508E000BFFAF7E8FD38B1FCF7E5
:105760004DF9001BB842F7D32846BDE8F08100256B
:10577000FAE70000780000207047000070B51D4C6B
:10578000A07800B3E06DB0F5967F2ED9002635469F
:10579000E665194801F088FD207068B103F04CFF00
:1057A0006D1CEDB20A2D03D914A000F0C5FC09E070
:1057B0000120FBF7CFFF02E017A000F0BDFC20782E
:1057C0000028E6D1A670FBF7E7F8FAF7FFFD0128FD
:1057D00009D015A000F0B0FC01210220FEF7DEFC8C
:1057E0000120E07470BDFAF733FEBDE8704000F0B0
:1057F00023B800000000002000030020665F636CF7
:105800006F73652066696C65206572726F72203EE9
:105810002031300D0A000000665F636C6F736520F5
:105820006F6B210D0A00000073646361726420666F
:10583000756C6C0D0A00000070B5164C16494FF4DB
:105840000075606B04F1480300EB801001EBC001B0
:105850002A46124802F006FF207030B1E16C10A019
:10586000491CE16400F068FC08E0A16CA9420FD07B
:1058700011A000F061FCE06C401CE064207803F0B3
:10588000DBFEE06C012803D9BDE87040FCF7AABB41
:1058900070BD000000000020A419002000030020BB
:1058A00077726974652066696C65206572726F72C3
:1058B0002C2025640D0A0000777269746520256428
:1058C0002062797465730D0A000000002DE9F04133
:1058D0002B4C8046A07B01284FD1607C01284CD105
:1058E0000125E5700027A765206B264E00EB801090
:1058F00006EBC0002146D0F80422487F496B3AB13C
:1059000000283AD16577BDE8F0411FA000F014BC33
:10591000012803D1677723A000F00EFC206B4FF421
:10592000007200EB8010B8F1000F06EBC00011D040
:10593000234900BFFAF79DFC206B00EB801106EBBA
:10594000C101C1F8045240F25721884204D2401CE0
:10595000206302E01B49EDE72763D4E90C12914272
:105960000BD119A000F0E8FBE576BDE8F04100227C
:105970004FF480611748FCF73BB8BDE8F0810000A8
:1059800000000020A41900206361636865206F7621
:105990006572666C6F772C20696E6465783D25644E
:1059A0000D0A00006361636865207265636F766548
:1059B00072792C20696E6465783D25640D0A0000BB
:1059C000A4170020A4150020773D256420723D25F2
:1059D000640D0A0000040240FCF76CBA30B5A9B0AF
:1059E000342116A8FAF75EFC142123A8FAF75AFC12
:1059F00058216846FAF756FC1E480024016841F019
:105A000080510160006800F0805028901A480168B9
:105A100041F4404101600068102100F440402890AA
:105A20000A2016900120CDE919010225CDE91B05B8
:105A30000820CDE91D404020CDE91F050420CDE917
:105A4000210516A8FCF766FD0F20CDE92305E80225
:105A5000CDE92540022123A82794FCF771FC68209A
:105A6000009028020C94CDE909046846FCF7CCFAB2
:105A700029B030BD40380240007000401048016835
:105A800041F4700101600F48016841F001010160BB
:105A90000C4A00210832116002680B4B1A40026068
:105AA000031D0A4A1A60026822F480220260054837
:105AB0000C300160024958068039086070470000C8
:105AC00088ED00E000380240FFFFF6FE10300024B1
:105AD0000148FDF781BD00001CDE04200148FDF7F0
